:020000040000FA
:102000006EEF3FF0FFFFFFFF1000FFFFFFFFFFFF3E
:10201000FFFFFFFFFFFFFFFF1000FFFFFFFFFFFFBE
:10202000FFFFFFFFFFFFFFFFFFFFFFFFFFFFFFFFC0
:10203000FFFFFFFFFFFFFFFFFFFFFFFFFFFFFFFFB0
:107E8000FFFFFFFFFFFFFFFFFFFFFFFFFFFFFFFF02
:107E9000FFFFFFFFFFFFFFFFFFFFFFFFFFFFFFFFF2
:107EA000FFFFFFFFFFFFFFFF030E0F01C26E000089
:107EB000C2B257EF3FF0C4CF00F0C3CF01F01200C1
:107EC0002F0E0F015B6F976A906A916AC16ABE0EAE
:107ED000C06EC36AC46A010EC26E1200700ED36E09
:107EE0009268929860EC3FF054EC3FF0010E006015
:107EF0007DEF3FF0899874EF3FF0898874EF3FF091
:020000040030CA
:0800000023280E3CFFD181FF13
:020000040020DA
:08000000040F050D00000000D3
:00000001FF
