:020000040000FA
:1020000070EF3FF0FFFFFFFF1000FFFFFFFFFFFF3C
:10201000FFFFFFFFFFFFFFFF1000FFFFFFFFFFFFBE
:107EA000FFFFFFFFFFFFFFFFFFFFFFFFFFFFFFFFE2
:107EB000FFFFFFFFFFFFFFFFFFFFFFFF0E0E0F01A2
:107EC000C10EBE0EC06E1200030E0F01C26E000086
:107ED000C2B267EF3FF0C4CF00F0C3CF01F0120091
:107EE000926892985EEC3FF064EC3FF0010E006007
:107EF0007DEF3FF0899874EF3FF0898874EF3FF091
:020000040030CA
:080000002C4E2A1EFF8181FF36
:020000040020DA
:0800000005090B0000000000DF
:00000001FF
